:100000000C94C1060C9405070C9405070C94050785
:100010000C9405070C9405070C9405070C94050730
:100020000C9405070C9405070C94BE0E0C94900FCD
:100030000C94101F0C9405070C9405070C940507ED
:100040000C9405070C9405070C9405070C94050700
:100050000C9405070C94781F0C9405070C94050765
:100060000C9405070C9405070C9405070C940507E0
:100070000C9405070C9405070C9405070C940507D0
:100080000C9405070C9405070C9405070C940507C0
:100090000C9405070C9405070C9405070C940507B0
:1000A0000C9405070C9405070C940507FD0F1F1011
:1000B0000D111F100D11641087100D11DC10EF10C1
:1000C0003114311460146014BA14F81401170117B4
:1000D0001115011712161216D51601170117EC1675
:1000E000F1A6218A228A2913F1A7018C028C048CA3
:1000F000088C291E1F20212223242526272D2E2A65
:100100002B141A0815171C180C12132F3031390430
:100110001607090A0B0D0E0F33340028E1001D1BD2
:10012000061905111036373852E5E0E3E200002CDD
:100130000000004CC050514F351E1F2021222324A7
:100140002526272D2E2A2B141A09130A0D0F181CE9
:10015000332F30312A04151617070B11080C1234EF
:100160000028E1001D1B0619050E1036373852E530
:10017000E0E3E200002C0000004CC04A4E4D351E6A
:100180001F20212223242526272F302A2B343637DF
:10019000131C090A06150F382E3139041208180CE1
:1001A000070B1711162D0028E10033140D0E1B0547
:1001B000101A191D52E5E0E3E200002C0000004C8B
:1001C000C0E765E4351E1F20212223242526272D84
:1001D0002E2A2B1407151A050D091813332F303149
:1001E0002A04160B170A1C1108120C340028E1000F
:1001F0001D1B1006190E0F36373852E5E0E3E200FA
:10020000002C0000004CC0E765E401010101010180
:1002100001010101010101010101010101010101CE
:1002200001010101010101010101010101010101BE
:1002300001010001010001010101010101010101B0
:1002400052E5010101000001000000010150514F81
:100250002901010101010101010101010101010166
:10026000010101010101010101010101010101017E
:100270000101010101010101000101000101010170
:100280000101010101010101010101000001000062
:10029000000101010101353A3B3C3D3E3F404142F6
:1002A0004344454C350152010101010101B2014AAB
:1002B00049010150514F010146474801014D0001DC
:1002C00001004C01B5A8A9AA014B4E4C4B010101FC
:1002D000010000C100000001014A4E4DC5C6C7C85B
:1002E0000101010101010101010101C5C801010173
:1002F0000101010101010101010101C70101010128
:1003000001010101000101000101C601010101011A
:1003100001010101010101000001000000010101D2
:1003200001010A002530313662003A2000253032C2
:1003300058000A722F632030313233343536373863
:10034000394142434445460A000A002530325800EC
:10035000626F756E6365213A20005B735D004B65CB
:1003600079626F6172642073746172742E0A005531
:10037000534220636F6E666967757265642E0A006A
:100380005B575D005B535D005B525D005B445D004D
:100390005B435D000A034700480036003000000060
:1003A00012036700650065006B0068006100630070
:1003B0006B0000000403090409028D00050100A080
:1003C00032090400000103010100092111010001AB
:1003D000223F000705810308000A09040100010308
:1003E000010200092111010001224D0007058203CD
:1003F00008000A090402000103000000092111019C
:1004000000012236000705830308000A09040300DF
:10041000020300000009211101000122200007054C
:1004200084032000010705040320000109040400DF
:100430000103000000092111010001223900070514
:1004400085031000011201100100000008EDFE609C
:100450006001000102000105010906A1010507195B
:10046000E029E715002501950875018102050819A5
:100470000129059505750191029501750391010505
:10048000071900297715002501957875018102C0AB
:100490000631FF0974A1010975150025FF95207526
:1004A0000881020976150025FF952075089102C084
:1004B00005010980A101850216010026B7001A0175
:1004C000002AB700751095018100C0050C0901A133
:1004D000018503160100269C021A01002A9C027560
:1004E0001095018100C005010902A1010901A100C7
:1004F00005091901290515002501950575018102D8
:100500009501750381010501093009311581257FA8
:1005100095027508810609381581257F95017508B2
:100520008106050C0A38021581257F950175088121
:1005300006C0C005010906A101050719E029E71554
:100540000025019508750181029501750881010555
:100550000819012905950575019102950175039109
:10056000010507190029FF150025FF95067508816B
:1005700000C00A002530325820006B6579626F6137
:1005800072645F7265706F72743A20000A002530E1
:100590003258006B6579626F6172645F7365745F76
:1005A0006C65643A200064656C5F6B65795F6269B5
:1005B000743A2063616E27742064656C3A2025309C
:1005C00032580A006164645F6B65795F6269743AEE
:1005D0002063616E2774206164643A2025303258AC
:1005E0000A00646F6E652E0A00626F6F676D616747
:1005F0006963207363616E3A202E2E2E2000290A33
:10060000002575002F002575005D28002564002059
:1006100000256400200025640020002564007C0083
:1006200025303258006D6F7573656B6579205B629C
:10063000746E7C782079207620685D287265702F32
:1006400061636C293A205B006D6B5F776865656C50
:100650005F74696D655F746F5F6D6178203D202503
:10066000640A006D6B5F776865656C5F6D61785FCC
:100670007370656564203D2025640A006D6B5F74AE
:10068000696D655F746F5F6D6178203D2025640A38
:10069000006D6B5F6D61785F7370656564203D20F0
:1006A00025640A006D6B5F696E74657276616C20FB
:1006B0003D2025640A006D6B5F64656C6179203DA7
:1006C0002025640A006D6B5F776865656C5F7469EF
:1006D0006D655F746F5F6D6178203D2025640A0051
:1006E0006D6B5F776865656C5F6D61785F73706572
:1006F0006564203D2025640A006D6B5F74696D653B
:100700005F746F5F6D6178203D2025640A006D6B1A
:100710005F6D61785F7370656564203D2025640AB4
:10072000006D6B5F696E74657276616C203D20258B
:10073000640A006D6B5F64656C6179203D202564FF
:100740000A000A00257500363A20776865656C5FF7
:1007500074696D655F746F5F6D61783A20000A009F
:10076000257500353A20776865656C5F6D61785F47
:1007700073706565643A20000A00257500343A20DC
:1007800074696D655F746F5F6D61783A20000A006F
:10079000257500333A206D61785F73706565643A42
:1007A00020000A00257500323A20696E7465727661
:1007B000616C286D73293A20000A00257500313AD2
:1007C0002064656C6179282A31306D73293A2000E4
:1007D0000A092D2056616C756573202D0A004D3E67
:1007E000004D25643E20003F0073657420646566FB
:1007F00061756C740A00433E20007768657265205D
:1008000064656C74613A20637572736F723D256420
:100810002C20776865656C3D25640A536565206802
:100820007474703A2F2F656E2E77696B69706564EA
:1008300069612E6F72672F77696B692F4D6F7573C2
:10084000655F6B6579730A000A092D204D6F75731A
:10085000656B6579202D0A4553432F713A097175EF
:1008600069740A313A0964656C6179282A31306DFE
:1008700073290A323A09696E74657276616C286D63
:1008800073290A333A096D61785F73706565640A8C
:10089000343A0974696D655F746F5F6D61780A350C
:1008A0003A09776865656C5F6D61785F737065653F
:1008B000640A363A09776865656C5F74696D655FCF
:1008C000746F5F6D61780A0A703A097072696E74AC
:1008D0002076616C7565730A643A097365742064E7
:1008E000656661756C74730A75703A092B310A6418
:1008F0006F776E3A092D310A706775703A092B319E
:10090000300A7067646F776E3A092D31300A0A73C6
:1009100070656564203D2064656C7461202A206DDB
:1009200061785F7370656564202A20287265706540
:100930006174202F2074696D655F746F5F6D6178DD
:10094000290A003F004D3E2000433E20004C256414
:100950000A000A092D20436F6E736F6C65202D0A03
:100960004553432F713A09717569740A6D3A096DDF
:100970006F7573656B65790A000A092D204D6167F3
:100980006963202D0A643A0964656275670A783ADA
:10099000096465627567206D61747269780A6B3AE3
:1009A000096465627567206B6579626F6172640ABC
:1009B0006D3A096465627567206D6F7573650A76B7
:1009C0003A0976657273696F6E0A733A09737461D6
:1009D0007475730A633A09636F6E736F6C65206D8B
:1009E0006F64650A302D343A096C61796572302D77
:1009F00034284631302D4634290A506175733A093E
:100A0000626F6F746C6F616465720A653A0965653F
:100A100070726F6D0A6E3A094E4B524F0A000A000F
:100A20002575002E6E6B726F3A20000A0025750046
:100A30002E737761705F6261636B736C6173685F63
:100A40006261636B73706163653A20000A0025750B
:100A5000002E737761705F67726176655F6573639F
:100A60003A20000A002575002E6E6F5F6775693A9F
:100A700020000A002575002E737761705F72616C2B
:100A8000745F726775693A20000A002575002E733D
:100A90007761705F6C616C745F6C6775693A200098
:100AA0000A002575002E636170736C6F636B5F7451
:100AB0006F5F636F6E74726F6C3A20000A00257569
:100AC000002E737761705F636F6E74726F6C5F631B
:100AD0006170736C6F636B3A20000A0025303258E6
:100AE000006B65796D61705F636F6E6669672E720A
:100AF00061773A20000A002575002E6D6F757365C9
:100B00003A20000A002575002E6B6579626F6172CC
:100B1000643A20000A002575002E6D6174726978B0
:100B20003A20000A002575002E656E61626C653AF8
:100B300020000A00253032580064656275675F63E3
:100B40006F6E6669672E7261773A20000A0025751C
:100B50000064656661756C745F6C617965723A20DA
:100B6000003F004E4B524F3A206F66660A004E4BD4
:100B7000524F3A206F6E0A0074696D65725F636F41
:100B8000756E743A202530346C580A006B657962B2
:100B90006F6172645F6E6B726F3A2025580A006B4A
:100BA0006579626F6172645F69646C653A2025588B
:100BB0000A006B6579626F6172645F70726F746F47
:100BC000636F6C3A2025580A00686F73745F6B6519
:100BD00079626F6172645F6C65647328293A2025BD
:100BE000580A000A092D20537461747573202D0A68
:100BF000004743433A20342E392E32204156522D9D
:100C00004C4942433A20312E382E30204156525F13
:100C1000415243483A20617672350A004F50544998
:100C20004F4E533A204C55464120424F4F544D4170
:100C3000474943204D4F5553454B4559204558543E
:100C400052414B455920434F4E534F4C4520434F43
:100C50004D4D414E44204E4B524F20343039360AD0
:100C6000004255494C443A20756E6B6E6F776E208A
:100C70002831393A35383A353820466562203235E0
:100C80002032303138290A005649443A203078461B
:100C9000454544286765656B6861636B2920504949
:100CA000443A2030783630363028474836302920CC
:100CB0005645523A203078303030310A004445539E
:100CC000433A20742E6D2E6B2E206B6579626F6116
:100CD0007264206669726D7761726520666F72203A
:100CE000474836300A000A092D2056657273696F2D
:100CF0006E202D0A000A6D6F7573653A206F666667
:100D00000A000A6D6F7573653A206F6E0A000A6BF0
:100D10006579626F6172643A206F66660A000A6BD9
:100D20006579626F6172643A206F6E0A000A6D61C4
:100D3000747269783A206F66660A000A6D6174728F
:100D400069783A206F6E0A000A64656275673A2016
:100D50006F6E0A000A64656275673A206F66660AFC
:100D6000000A0A626F6F746C6F616465722E2E2EBA
:100D70002000433E20006565636F6E6669673A0A2E
:100D8000000011241FBECFEFDAE0DEBFCDBF04B6F6
:100D900003FE24C08091E6019091E701A091E80153
:100DA000B091E9018730904BA740B04BB9F4109255
:100DB000E6011092E7011092E8011092E90114BED9
:100DC00084B7877F84BF88E10FB6F8948093600072
:100DD000109260000FBEE0E0F8E3099511E0A0E09A
:100DE000B1E0E8ECF5E502C005900D92A833B1073B
:100DF000D9F711E0A8E3B1E001C01D92A63EB1070A
:100E0000E1F70E94F20B0C94E22A0C940000FF938D
:100E1000EF93E0913801F0913901309709F009958D
:100E2000EF91FF910895FC018591803011F0EFDF83
:100E3000FBCF0895FF27E0E230E247FF0CC0419569
:100E400097FF09C0EDE26095709580959095611DC2
:100E5000711D811D911D27FF02C0219530E350E2D5
:100E6000AA27660F771F881F991FAA1FA41710F0C3
:100E7000A41B63955A95A9F7AA3008F0A95FA05D55
:100E8000AF93F395611571058105910541F7ED3239
:100E900011F4EF93F395F21718F43F93F395FBCF0A
:100EA0008F91B5DFFA95E1F70895E991F991859170
:100EB000803021F0853219F0AADFF9CF089520E0C3
:100EC000E89455915532C1F3503311F4689455911B
:100ED0005A3348F4505390F3220F022E220F220F60
:100EE000200D250FF4CF0EF4219589919991533659
:100EF00019F3533729F1533559F1BC018827992744
:100F0000E8945C3621F4899199916894559154360E
:100F100039F446EF7EF077FF0DC08FEF9FEF0AC0E8
:100F200055374AE039F0583540E121F0523642E079
:100F300009F00895FF93EF937DDFEF91FF91B7CF15
:100F4000FF93EF93FC0181918030B9F360DFFBCF19
:100F5000FF93EF9368DFF1CFDF93CF93CDB7DEB789
:100F60002596A3DFCF91DF9108959EE0799FF00150
:100F7000112496E4899FE00DF11D1124E60FF11D67
:100F8000EE50FF4F84910895E82FF0E0EE0FFF1F21
:100F9000E05AF0408591949108958AB1807D8AB994
:100FA0008BB1807D8BB908950E94CD0780B38C7F73
:100FB00080BB81B3836081BB6E98769A8AB18F7251
:100FC0008AB98BB1806D8BB987B18F7387B988B1BE
:100FD000806C88B984B1847084B985B18B6F85B910
:100FE000E4E4F1E0AAE3B1E0119211921D921D92A6
:100FF00081E0EE34F807C1F70895BF92CF92DF92F7
:10100000EF92FF920F931F93CF93DF930AE311E0C8
:10101000E801B12CDD24D394A5E0CA2EBBE4EB2E6D
:10102000B3E0FB2E82E0B81691F08B1520F091E032
:10103000B91651F006C0A3E0BA1661F0B4E0BB16D1
:1010400061F0509A58980BC0519A599808C0529A1A
:101050005A9805C0539A5B9802C0559A5D9880EAE9
:101060008A95F1F78FB181708D2590E0799903C051
:1010700022E030E002C020E030E0822B932B669922
:1010800003C024E030E002C020E030E0AC01422B9D
:10109000532B26B1332727FD309520953095C90174
:1010A0008827990F881F9927F3E0880F991FFA95D1
:1010B000E1F7842B952B369903C0E0E1F0E002C004
:1010C000E0E0F0E08E2B9F2B1E9903C0E0E2F0E001
:1010D00002C0E0E0F0E08E2B9F2B4C9903C060E44F
:1010E00070E002C060E070E0862B972B199903C076
:1010F00020E830E002C020E030E0AC01422B532B6E
:10110000189B0EC023B1332727FD309520953095CD
:10111000C9018827990F881F9927982F882702C00F
:1011200080E091E0842B952B1D9903C040E052E0B4
:1011300002C040E050E0842B952B1C9903C040E096
:1011400054E002C040E050E0842B952B49B1552774
:1011500047FD5095409550959A012227330F221F45
:101160003327322F2227330F330F330F282B392BFE
:101170004E9903C080E090E102C080E090E0282B0F
:10118000392B1B9903C040E050E202C040E050E020
:10119000242B352B888199818217930741F139835C
:1011A000288380910001882301F18091C70180FF8D
:1011B00004C080E593E00E9413078091C70180FF7F
:1011C0000CC0809100011F928F93FF92EF920E94BA
:1011D000AC070F900F900F900F908091C70180FF88
:1011E00004C089E493E00E941307C09200010E94AA
:1011F000CD07B394229695E0B91214CF80910001E7
:101200008823C1F0815080930001882339F0AFE931
:10121000BFE01197F1F700C000000CC0E4E4F1E07A
:10122000D8018D919D918D0181939193B1E004340A
:101230001B07B1F781E0DF91CF911F910F91FF90D4
:10124000EF90DF90CF90BF900895E82FF0E0EE0F81
:10125000FF1FEC5BFE4F808191810895CF92DF925A
:10126000EF92FF920F931F93CF93DF9382E393E06C
:101270000E94130784E4E82E81E0F82EC0E0D0E05D
:101280009DE2C92E93E0D92E04E213E0DF93CF93C1
:10129000DF92CF920E94AC078AE293E00E9413078C
:1012A000F701819191917F010E94B71E9F938F93C7
:1012B0001F930F930E94AC0782E293E00E941307F2
:1012C00021968DB79EB708960FB6F8949EBF0FBEB5
:1012D0008DBFC530D105D1F6DF91CF911F910F9110
:1012E000FF90EF90DF90CF90089581FF02C0229A87
:1012F00001C022982A9808958091610108959FB7AE
:10130000F894109250019FBF9091DD01943009F044
:1013100057C09091E9009F703091EC00232F21700D
:1013200030FD20E8922B24E02093E9002091EB008F
:1013300020FF43C02091EE0027FF3FC020914E01C7
:10134000222321F02091E80025FF37C010924E01A2
:1013500026E03091E80035FD15C03091DD013430D4
:1013600061F53091EB0035FD28C0215021F481E07A
:1013700080934E0122C0EFE9FFE03197F1F700C002
:101380000000E7CF8093F1008091E80085FD0AC05E
:101390008091E80080FFFCCF8091E8008E778093F9
:1013A000E80006C08FB7F89421E0209350018FBF6A
:1013B0009F709093E90080E008959F709093E900FA
:1013C0008FEF0895CF93DF9300D01F92CDB7DEB794
:1013D0009C018091DD01843019F593E099833B8372
:1013E0002A839093E9008FEF9091E800815095FD5A
:1013F00006C095ED9A95F1F700008111F5CF809127
:10140000E80085FF0DC040E050E063E070E0CE01F1
:1014100001960E94AE0C8091E8008E778093E800E0
:101420000F900F900F90DF91CF910895CF93DF939E
:1014300000D01F92CDB7DEB72091DD01243021F519
:1014400022E029839B838A8383E08093E9008FEFE6
:101450009091E800815095FD06C095ED9A95F1F7C1
:1014600000008111F5CF8091E80085FF0DC040E0BC
:1014700050E063E070E0CE0101960E94AE0C8091D6
:10148000E8008E778093E8000F900F900F90DF9127
:10149000CF9108952091DD012430F1F422E02093D2
:1014A000E9002FEF3091E800215035FD06C035ED01
:1014B0003A95F1F700002111F5CF2091E80025FFC2
:1014C0000BC040E050E065E070E00E94AE0C8091FF
:1014D000E8008E778093E8000895CF93DF93209102
:1014E000DD01243009F048C0EC0180910B01882314
:1014F000E1F080910C018823C1F085E08093E90040
:101500008FEF9091E800815095FD06C095E19A9586
:10151000F1F700008111F5CF8091E80085FF2CC024
:1015200040E050E060E170E017C081E08093E900A6
:101530008FEF9091E800815095FD06C095ED9A954A
:10154000F1F700008111F5CF8091E80085FF14C00C
:1015500040E050E068E070E0CE010E94AE0C809167
:10156000E8008E778093E80080E1FE01A1E5B1E01C
:1015700001900D928A95E1F7DF91CF91089580E96E
:1015800093E00E9413078091DC01811109C00E9441
:10159000430E0E94A00E8091E20084608093E200DE
:1015A00008958CE893E00E9413071092DC010895DF
:1015B00088E893E00C94130784E893E00C941307F5
:1015C00080E893E00E9413070C940E1F20914F01B6
:1015D0002F5F822F62E30E94772A992319F02093CC
:1015E0004F01089510924F0180915001882371F1AD
:1015F0008091DD01843041F58091E9008F70209168
:10160000EC00922F917020FD90E8892B94E090934C
:10161000E9009091EB0090FF14C09091EE0097FFCD
:1016200010C09091E80095FF03C01092F100F9CF2F
:101630009091E80090FF05C09091E8009E7790930C
:10164000E8008F708093E90010925001089542E005
:1016500061EC81E00E94BD0D42E061EC82E00E94FD
:10166000BD0D42E061EC83E00E94BD0D42E261EC01
:1016700084E00E94BD0D42E161EC85E00C94BD0D5B
:101680008091DF01833009F455C030F4813071F06E
:10169000823009F48EC008958A3009F47AC08B3004
:1016A00009F460C0893009F09CC020C08091DE013F
:1016B000813A09F096C08091E800877F8093E80026
:1016C0008091E2019091E301892B21F460E181E5B1
:1016D00091E003C060E080E090E070E00E94F90CCF
:1016E0008091E8008B778093E80008958091DE0177
:1016F000813209F076C08091E2019091E301009778
:1017000019F0049709F06DC08091E800877F8093FD
:10171000E8008091E80082FD05C08091DD01811123
:10172000F8CF5FC08091F100809361018091E80063
:101730008B7753C08091DE01813A09F052C08091CD
:10174000E2019091E301892B09F04BC08091E80000
:10175000877F8093E8008091E80080FFFCCF809134
:101760000B0136C08091DE018132D9F58091E20112
:101770009091E301892BA9F58091E800877F809300
:10178000E8000E94F20D8091E00180930B010C941F
:1017900023178091DE01813221F58091E800877F57
:1017A0008093E8000E94F20D8091E1018093620134
:1017B00008958091DE01813AA1F48091E800877F4D
:1017C0008093E8008091E80080FFFCCF8091620167
:1017D0008093F1008091E8008E778093E8000C946C
:1017E000F20D089584B7877F84BF88E10FB6F8941F
:1017F00080936000109260000FBE90E080E80FB60A
:10180000F89480936100909361000FBE0E94B7111D
:101810000E94430E0E94A00E8091E200846080939B
:10182000E2008FE799E00E949C1E78948091DD0190
:101830008430E1F78FE693E00E9413070E94B9110C
:1018400081E091E00E9425118EE593E00E9413074C
:101850008091DD01853089F48AE593E00E941307C9
:101860000E94D11E8091DB01882391F30E94F91E12
:10187000882371F30E94980CEBCF0E94E711E8CF08
:10188000292F332723303105C9F064F42130310585
:1018900081F02230310509F043C08DE890E028EB5B
:1018A00033E042C021323105F1F02232310541F1FD
:1018B00037C082E190E025E434E036C099278130DA
:1018C000910541F08230910541F0892B49F5E4EB17
:1018D000F3E005C0E0EAF3E002C0E4E9F3E084915C
:1018E00090E09F0121C06530D8F4E62FF0E0EE0FC4
:1018F000FF1FEC5DFE4F2081318189E090E014C034
:10190000653070F470E0FB01EE0FFF1FE65EFE4FE6
:1019100020813181FB01EB5EFE4F808190E004C0AD
:1019200080E090E020E030E0FA01318320830895E8
:1019300080E189BD82E189BD09B400FEFDCF8091BF
:10194000D8008F7D8093D8008091E00082608093E2
:10195000E0008091E00081FDFCCF0895CF92DF92FE
:10196000EF92FF920F931F93CF93DF93EC018B01C4
:101970006A010E94110E811133C0C114D10439F0E3
:10198000F60180819181081B190BC80FD91FE12C2A
:10199000F12C0115110519F18091E80085FD16C0A3
:1019A0008091E8008E778093E800C114D10449F05B
:1019B000F60180819181E80EF91EF182E08285E0D6
:1019C0000FC00E94110E882321F30AC089918093D1
:1019D000F10001501109FFEFEF1AFF0ADACF80E0A2
:1019E000DF91CF911F910F91FF90EF90DF90CF90FB
:1019F00008952091E4013091E5012617370748F05A
:101A00006115710539F42091E8002E772093E800E4
:101A100001C0B90140E061157105A9F12091DD0116
:101A2000222309F443C0253009F442C02091E80084
:101A300023FD40C02091E80022FD32C02091E80043
:101A400020FFE9CF4091F3002091F20030E0342BE9
:101A5000FC01CF016115710559F02830310540F4C2
:101A600081918093F100615071092F5F3F4FF1CF59
:101A700041E02830310509F040E02091E8002E7760
:101A80002093E800C8CF4111C9CF0AC08091DD0181
:101A9000882361F0853061F08091E80083FD0AC001
:101AA0008091E80082FFF2CF80E0089582E00895FF
:101AB00083E0089581E008952091E4013091E501EB
:101AC0002617370748F06115710539F42091E800B1
:101AD0002E772093E80001C0B901FC0120E06115D8
:101AE000710591F18091DD01882309F440C08530B2
:101AF00009F43FC08091E80083FD3DC08091E8007B
:101B000082FD2FC08091E80080FFE9CF2091F30093
:101B10008091F20090E0922B6115710559F08830A8
:101B2000910540F424912093F100319661507109A0
:101B30000196F2CF21E0089709F020E08091E800BB
:101B40008E778093E800CBCF2111CCCF0AC0809153
:101B5000DD01882361F0853061F08091E80083FD2C
:101B60000AC08091E80082FFF2CF80E0089582E011
:101B7000089583E0089581E00895982F973058F5EF
:101B80009093E900981739F07091EC002091ED00E6
:101B90005091F00003C0242F762F50E021FF19C090
:101BA0003091EB003E7F3093EB003091ED003D7FB4
:101BB0003093ED003091EB0031603093EB00709387
:101BC000EC002093ED005093F0002091EE0027FFF1
:101BD00007C09F5FD3CF8F708093E90081E00895A5
:101BE00080E008958091DE0187FF11C08091E800B8
:101BF00082FD05C08091DD018111F8CF11C0809177
:101C0000E8008B770BC08091DD01882349F080913B
:101C1000E80080FFF8CF8091E8008E778093E8009D
:101C200008952091E4003091E50095E64091EC00A4
:101C3000842F817040FF22C08091E80080FD1CC08D
:101C40008091DD01882391F0853091F08091EB0047
:101C500085FD10C04091E4005091E5004217530704
:101C600029F39A01915011F784E0089582E00895D4
:101C700083E0089581E0089580E008954091E800B0
:101C800042FFDECF08950E94B10E0E94B90EE0EE31
:101C9000F0E0808181608083E8EDF0E080818F77E3
:101CA000808319BCA7EDB0E08C918E7F8C938081EE
:101CB0008F7E80831092DC0108950F931F93CF9342
:101CC000DF930E94B10E0E94B90EC8EDD0E088816A
:101CD0008F77888388818068888388818F7D8883D7
:101CE00019BC1092DD011092D9011092DB01109203
:101CF000DA0100EE10E0F80180818B7F808388811B
:101D00008160888342E060E080E00E94BD0DE1EEEA
:101D1000F0E080818E7F8083E2EEF0E08081816060
:101D20008083808188608083F80180818E7F8083BA
:101D3000888180618883DF91CF911F910F910895F1
:101D4000E8EDF0E080818F7E8083E7EDF0E0808138
:101D50008160808384E082BF81E08093DC010C9409
:101D60005D0EE8EDF0E080818E7F80831092E200CE
:101D700008951092DA001092E10008951F920F92D8
:101D80000FB60F9211242F933F934F935F936F934E
:101D90007F938F939F93AF93BF93EF93FF93809124
:101DA000E10082FF0BC08091E20082FF07C08091BA
:101DB000E1008B7F8093E1000E94E60A8091DA00C7
:101DC00080FF1FC08091D80080FF1BC08091DA0087
:101DD0008E7F8093DA008091D90080FF0DC080E172
:101DE00089BD82E189BD09B400FEFDCF81E0809309
:101DF000DD010E94BF0A05C019BC1092DD010E94DE
:101E0000D10A8091E10080FF19C08091E20080FF3B
:101E100015C08091E2008E7F8093E2008091E20005
:101E200080618093E2008091D80080628093D80026
:101E300019BC85E08093DD010E94DC0A8091E100FD
:101E400084FF30C08091E20084FF2CC080E189BD16
:101E500082E189BD09B400FEFDCF8091D8008F7D5D
:101E60008093D8008091E1008F7E8093E100809183
:101E7000E2008F7E8093E2008091E2008160809397
:101E8000E2008091D901882311F084E007C080919D
:101E9000E30087FD02C081E001C083E08093DD01A3
:101EA0000E94E00A8091E10083FF29C08091E20056
:101EB00083FF25C08091E100877F8093E10082E06D
:101EC0008093DD011092D9018091E1008E7F809393
:101ED000E1008091E2008E7F8093E2008091E20039
:101EE00080618093E20042E060E080E00E94BD0DEE
:101EF0008091F00088608093F0000E94D80AFF91E2
:101F0000EF91BF91AF919F918F917F916F915F9171
:101F10004F913F912F910F900FBE0F901F901895EA
:101F20001F920F920FB60F9211242F933F934F934E
:101F30005F936F937F938F939F93AF93BF93CF9351
:101F4000DF93EF93FF93C091E900CF708091EC0095
:101F5000D82FD17080FDD0E81092E9008091F00078
:101F6000877F8093F00078940E94D40F1092E9004C
:101F70008091F00088608093F000CD2BCF70C093EB
:101F8000E900FF91EF91DF91CF91BF91AF919F91C8
:101F90008F917F916F915F914F913F912F910F9012
:101FA0000FBE0F901F9018951F93CF93DF93CDB75F
:101FB000DEB7AA970FB6F894DEBF0FBECDBFEEED29
:101FC000F1E088E08E0F9091F10091938E13FBCF9A
:101FD0000E94400B8091E80083FF1FC18091DE01C9
:101FE0009091DF01492F50E04A30510508F015C1AA
:101FF000FA01EA5AFF4F0C94972A803881F0823810
:1020000009F00BC18091E2018F708093E90080910B
:10201000EB0085FB882780F91092E90006C08091CB
:10202000DA019091DB01911182609091E800977F35
:102030009093E8008093F1001092F100C8C0282F1F
:102040002D7F09F0EAC0882319F0823061F0E5C0E5
:102050008091E001813009F0E0C0933009F080E028
:102060008093DB012BC08091E001811127C080911A
:10207000E2018F7009F4D1C08093E9002091EB0058
:1020800020FF1CC0933021F48091EB00806214C0CB
:102090009091EB0090619093EB0021E030E0A9017A
:1020A00002C0440F551F8A95E2F74093EA00109250
:1020B000EA008091EB0088608093EB001092E900C9
:1020C0008091E800877F86C08111A7C01091E00150
:1020D0001F778091E3008078812B8093E3008091CB
:1020E000E800877F8093E8000E94F20D8091E8006D
:1020F00080FFFCCF8091E30080688093E3001111A2
:1021000002C082E001C083E08093DD0186C0805878
:10211000823008F082C08091E0019091E1018C3D15
:1021200053E0950779F583E08A838AE289834FB784
:10213000F894DE01139620E03EE051E2E32FF0E058
:1021400050935700E49120FF03C0E295EF703F5F8A
:10215000EF708E2F90E0EA3010F0C79601C0C09665
:102160008D939D932F5F243149F74FBF8091E800F5
:10217000877F8093E8006AE270E0CE0101960E94BA
:10218000F90C14C0AE014F5F5F4F6091E2010E94F5
:10219000400CBC01009709F440C09091E800977F83
:1021A0009093E80089819A810E945C0D8091E800FB
:1021B0008B778093E80031C0803879F58091E80012
:1021C000877F8093E8008091D9018093F10080910E
:1021D000E8008E778093E8000E94F20D1EC0811106
:1021E0001CC09091E0019230C0F48091E800877F9C
:1021F0008093E8009093D9010E94F20D8091D9015B
:10220000811106C08091E30087FD02C081E001C01A
:1022100084E08093DD010E94270B8091E80083FF1A
:102220000AC08091E800877F8093E8008091EB00EE
:1022300080628093EB00AA960FB6F894DEBF0FBEC3
:10224000CDBFDF91CF911F91089590936801809346
:1022500067010895E0916701F0916801309721F0DE
:102260000190F081E02D099480E00895EF92FF92B3
:102270000F931F93CF93DF93E0916701F091680173
:102280003097B1F18C010280F381E02D09958091A6
:10229000C70182FF2DC080FF04C08AE795E00E943D
:1022A0001307E80110E184E7E82E85E0F82E80911D
:1022B000C70180FF0BC088811F928F93FF92EF921E
:1022C0000E94AC070F900F900F900F901150219625
:1022D0001111EDCF8091C70180FF0AC082E795E020
:1022E000DF91CF911F910F91FF90EF900C94130706
:1022F000DF91CF911F910F91FF90EF900895E091A2
:102300006701F0916801309721F00480F581E02D9C
:102310000994089520916501309166018217930711
:1023200071F09093660180936501E0916701F091EF
:102330006801309721F00680F781E02D0994089517
:1023400020916301309164018217930771F090939B
:10235000640180936301E0916701F0916801309717
:1023600021F00084F185E02D0994089508950C94DE
:10237000B6110E94391F0E94D4070C940820CF93F5
:10238000C82F8091C70182FF1EC080FF04C083E96F
:1023900095E00E9413078091C70180FF0CC01F9237
:1023A000CF938EE895E09F938F930E94AC070F9098
:1023B0000F900F900F908091C70180FF04C08CE8B0
:1023C00095E00E9413078C2FCF910C9475094F92C2
:1023D0005F927F928F929F92AF92BF92CF92DF9245
:1023E000EF92FF920F931F93CF93DF93CDB7DEB79A
:1023F0002A970FB6F894DEBF0FBECDBF0E94FD072F
:102400009AE6C92E91E0D92E00E010E0AA24A39408
:10241000B12C702E802F0E9425094C01F6014190AD
:1024200051906F014826592641145104B1F40F5FB1
:102430001F4F0530110569F78FEF89838A831B824F
:102440000E94421F8160782F9D838C8349815A812D
:102450006B818D810E94A0123AC08091C70181FDDD
:102460000E942E0920E030E07501022E02C0EE0C21
:10247000FF1C0A94E2F7C70184219521892B09F1F9
:102480002E837F828E209F2091E0892809F490E09E
:1024900098870E94421F8160782F9A8789874E8192
:1024A0005F8168858A850E94A012000F111FF801C4
:1024B000E659FE4F80819181E826F926F182E0827B
:1024C00006C02F5F3F4F2E30310571F6B0CF0E940E
:1024D0007923109169010E942A111817D9F00E94DE
:1024E0002A11809369012A960FB6F894DEBF0FBEB9
:1024F000CDBFDF91CF911F910F91FF90EF90DF90B3
:10250000CF90BF90AF909F908F907F905F904F90B3
:102510000C94BF112A960FB6F894DEBF0FBECDBF44
:10252000DF91CF911F910F91FF90EF90DF90CF90AF
:10253000BF90AF909F908F907F905F904F90089545
:10254000CF93DF93CDB7DEB72B970FB6F894DEBFEE
:102550000FBECDBF4F83588769877A878B87DE018F
:10256000119686E0FD0111928A95E9F785E0FE015A
:10257000379601900D928A95E1F749815A816B81D6
:102580007C818D819E810E94BD192B960FB6F89497
:10259000DEBF0FBECDBFDF91CF910895CF938823CB
:1025A00009F4C2C0C82F823859F40E942A1181FD53
:1025B000BBC089E30E94591C0E94381D89E30CC0EE
:1025C000833879F40E942A1180FDAEC083E50E9411
:1025D000591C0E94381D83E50E94AC1CCF910C94BD
:1025E000381D843859F40E942A1182FD9DC087E469
:1025F0000E94591C0E94381D87E4EECF8CEF8C0F8F
:10260000813A48F48C2F0E94002881118DC08C2FB4
:102610000E94591CE3CF80E28C0F883048F4C770C9
:1026200081E001C0880FCA95EAF70E94011DD6CF4C
:102630008BE58C0F833078F4C53A29F0C63A31F037
:1026400083E890E005C081E890E002C082E890E075
:10265000CF910C948A1188E58C0F833108F064C007
:10266000C83A39F1C93A41F1CA3A49F1CB3A51F184
:10267000CC3A59F1CD3A61F1C03B69F1CE3A71F1F2
:10268000CF3A79F1C13B81F1C23B89F1C33B91F172
:10269000C43B99F1C53BA1F1C63BA9F1C73BB1F1E0
:1026A000C83BB9F1C93BC1F1CA3BC9F180E090E038
:1026B00038C082EE90E035C089EE90E032C08AEEFC
:1026C00090E02FC085EB90E02CC086EB90E029C015
:1026D00087EB90E026C08CEC90E023C08DEC90E07E
:1026E00020C083E891E01DC08AE891E01AC082E929
:1026F00091E017C084E991E014C081E292E011C03A
:1027000083E292E00EC084E292E00BC085E292E0A8
:1027100008C086E292E005C087E292E002C08AE249
:1027200092E0CF910C94A011CF910895882309F4E1
:102730004BC0823859F40E942A1181FF45C089E3B9
:102740000E94591C0E94381D89E30CC0833871F423
:102750000E942A1180FF38C083E50E94591C0E9404
:10276000381D83E50E94AC1C0C94381D843859F444
:102770000E942A1182FF28C087E40E94591C0E94EF
:10278000381D87E4EFCF9CEF980F913A58F390E211
:10279000980F983050F4877091E001C0990F8A9596
:1027A000EAF7892F0E94071DDFCF9BE5980F933032
:1027B00020F480E090E00C948A11885A833120F450
:1027C00080E090E00C94A0110895882321F00E94ED
:1027D000011D0C94381D0895882321F00E94071DC7
:1027E0000C94381D0895BF92CF92DF92EF92FF9222
:1027F0000F931F93CF93DF9300D000D000D0CDB7BD
:10280000DEB725E0FC01DE01119601900D922A95BC
:10281000E1F7FC01408131810281258122952F70F1
:1028200063817481672B09F4ECC23F3F19F44F3F79
:1028300009F4E7C27C0149833A8389819A812E8316
:102840000E94181C182FB92E0E94171C0E94DE1A15
:10285000EB2DE295EF70F0E0E05AFF4F2E810C94E3
:10286000972A8B2D807F9B2D9F70F92E882319F03E
:10287000F29480EFF822002349F0FF2009F46EC2A1
:102880008F2D0E94111D0E94381D68C2812F0E9449
:102890009613FF2009F4B5C28F2D0E94171D2696AE
:1028A0000FB6F894DEBF0FBECDBFDF91CF911F9161
:1028B0000F91FF90EF90DF90CF90BF900C94381D58
:1028C0008B2D807F9B2D9F70803211F4892F03C048
:1028D000892F8295807F112319F0113011F12BC0BF
:1028E0000023A9F0222389F1213079F526960FB62D
:1028F000F894DEBF0FBECDBFDF91CF911F910F9136
:10290000FF90EF90DF90CF90BF900C94211D222379
:1029100019F0213009F475C28E830E94241D8E8126
:102920009BC1002321F0263008F06BC20EC0253079
:1029300008F067C291C10023C9F0222331F0F701EA
:10294000958190FF0BC29F70958326960FB6F894E1
:10295000DEBF0FBECDBFDF91CF911F910F91FF90D2
:10296000EF90DF90CF90BF900C94E513222309F4F1
:1029700073C109C22B2D26952695237030E02115B1
:10298000310521F021303105D1F03BC2002321F087
:10299000812F9B2D937002C080E090E026960FB6A9
:1029A000F894DEBF0FBECDBFDF91CF911F910F9185
:1029B000FF90EF90DF90CF90BF900C948A1100238E
:1029C00021F0812F9B2D937002C080E090E026962D
:1029D0000FB6F894DEBF0FBECDBFDF91CF911F9130
:1029E0000F91FF90EF90DF90CF90BF900C94A011CB
:1029F000812F002319F00E94FF2102C00E9467224C
:102A000026960FB6F894DEBF0FBECDBFDF91CF91F3
:102A10001F910F91FF90EF90DF90CF90BF900C949B
:102A2000EC228B2D837009F07BC00111EAC1812F4C
:102A3000829586958770880F880F912F9F70C92E79
:102A4000D12CE12CF12C082E04C0CC0CDD1CEE1C8A
:102A5000FF1C0A94D2F714FF12C04FE050E060E070
:102A600070E004C0440F551F661F771F8A95D2F788
:102A7000CB01BA01609570958095909503C060E098
:102A800070E0CB012B2D269526952370422F50E028
:102A900042305105D9F04330510569F16C297D2947
:102AA0008E299F294130510551F126960FB6F89491
:102AB000DEBF0FBECDBFDF91CF911F910F91FF9071
:102AC000EF90DF90CF90BF900C94051B6C297D296F
:102AD0008E299F2926960FB6F894DEBF0FBECDBF74
:102AE000DF91CF911F910F91FF90EF90DF90CF90EA
:102AF000BF900C94211B0E94051BC701B6012696AE
:102B00000FB6F894DEBF0FBECDBFDF91CF911F91FE
:102B10000F91FF90EF90DF90CF90BF900C94E91A47
:102B2000002319F08B2D817001C08695882309F44C
:102B300068C1812F829586958770880F880F912FA5
:102B40009F70C92ED12CE12CF12C082E04C0CC0C86
:102B5000DD1CEE1CFF1C0A94D2F714FF12C04FE0DC
:102B600050E060E070E004C0440F551F661F771FFF
:102B70008A95D2F7CB01BA016095709580959095B2
:102B800003C060E070E0CB012B2D269526952370C5
:102B9000422F50E042305105D9F04330510569F1E0
:102BA0006C297D298E299F294130510551F12696A6
:102BB0000FB6F894DEBF0FBECDBFDF91CF911F914E
:102BC0000F91FF90EF90DF90CF90BF900C94DF1BA0
:102BD0006C297D298E299F2926960FB6F894DEBF91
:102BE0000FBECDBFDF91CF911F910F91FF90EF905E
:102BF000DF90CF90BF900C94FB1B0E94DF1BC7019E
:102C0000B60126960FB6F894DEBF0FBECDBFDF919A
:102C1000CF911F910F91FF90EF90DF90CF90BF90D9
:102C20000C94C31B103F49F118F4103E48F491C0B6
:102C3000123F09F453C0E8F1133F09F464C089C09E
:102C40001F708B2D8F71002321F00E945C1B812F40
:102C50007CCE0E947D1B812F26960FB6F894DEBF96
:102C60000FBECDBFDF91CF911F910F91FF90EF90DD
:102C7000DF90CF90BF900C94EC130023B1F025307F
:102C800008F0BFC08B2D8F7126960FB6F894DEBF6B
:102C90000FBECDBFDF91CF911F910F91FF90EF90AD
:102CA000DF90CF90BF900C94A21B263008F0A9C0F3
:102CB000E9CF0023A9F08B2D8F7126960FB6F894DB
:102CC000DEBF0FBECDBFDF91CF911F910F91FF905F
:102CD000EF90DF90CF90BF900C945C1B002359F3D2
:102CE0008B2D8F7126960FB6F894DEBF0FBECDBF29
:102CF000DF91CF911F910F91FF90EF90DF90CF90D8
:102D0000BF900C947D1B002399F08B2D8F7126961C
:102D10000FB6F894DEBF0FBECDBFDF91CF911F91EC
:102D20000F91FF90EF90DF90CF90BF900C94471BD6
:102D300026960FB6F894DEBF0FBECDBFDF91CF91C0
:102D40001F910F91FF90EF90DF90CF90BF900C9468
:102D50003D1B0023A9F0222309F4ADCF812F269635
:102D60000FB6F894DEBF0FBECDBFDF91CF911F919C
:102D70000F91FF90EF90DF90CF90BF900C94CE1208
:102D8000222309F4ADCF812F26960FB6F894DEBF2B
:102D90000FBECDBFDF91CF911F910F91FF90EF90AC
:102DA000DF90CF90BF900C9496134B2D4F70612FF6
:102DB000C7010E94981E26960FB6F894DEBF0FBE7C
:102DC000CDBFDF91CF911F910F91FF90EF90DF90DA
:102DD000CF90BF900C94611A4B2D4F70612FC7019B
:102DE00026960FB6F894DEBF0FBECDBFDF91CF9110
:102DF0001F910F91FF90EF90DF90CF90BF900C94B8
:102E00009B1E26960FB6F894DEBF0FBECDBFDF9196
:102E1000CF911F910F91FF90EF90DF90CF90BF90D7
:102E200008950E941E1D0E94F31C0E94381D0E94DE
:102E30001F240E94EC2280E090E00E948A1180E032
:102E400090E00C94A0110E940E1D0C9411170E948A
:102E5000181C292F22952F7030E02C3031054CF4AE
:102E60002A3031056CF4225031092230310588F4C2
:102E700007C02C30310549F02F30310531F009C041
:102E8000803E48F0803F29F406C093FB882780F9F4
:102E9000089580E0089581E00895CF93DF9300D0F6
:102EA00000D01F92CDB7DEB70F900F900F900F900C
:102EB0000F90DF91CF910895CF93DF9300D000D092
:102EC00000D0CDB7DEB726960FB6F894DEBF0FBEA2
:102ED000CDBFDF91CF9108951F93CF93DF93C09122
:102EE000740116E080917501C81799F0D0E01C9F1D
:102EF000F0011D9FF00D1124EA58FE4F40815181D1
:102F000062817381848195810E945C172196C770CC
:102F1000E9CFDF91CF911F9108954091A601509183
:102F2000A7016091A8017091A9018091AA019091D7
:102F3000AB010C945C178091AB0182958F7009F006
:102F400054C08091A801882309F44FC08091740176
:102F5000A09175016091A6017091A7014091A9010E
:102F60005091AA01B6E08A1709F43FC090E04115DC
:102F70005105C1F17F3F11F46F3FA1F1B89FF001FE
:102F8000B99FF00D1124EA58FE4F218172132AC017
:102F90002081621327C02281211124C02381348122
:102FA0002417350710F421503109241B350B283C18
:102FB0003105C0F42091AB012F7020612093AB014B
:102FC00026E0289FF001299FF00D1124E558FE4FBF
:102FD00080818F708061808386EA91E00E94F31384
:102FE0000C946C1701968770BECF0895CF92DF9234
:102FF000EF92FF920F931F93CF93DF93CDB7DEB77E
:1030000062970FB6F894DEBF0FBECDBF8C0185E08E
:10301000F801DE011D9601900D928A95E1F7D80125
:103020004C9111965C91119712966C911297139690
:10303000CD90DC9014973091A6017091A7018091FA
:10304000A9019091AA01009709F46BC17F3F19F47F
:103050003F3F09F466C1E090A801EE2009F4C0C02A
:103060002091AB01C816D90628F0F601E81BF90B30
:10307000CF0104C0809590958C0D9D1DFF24F39485
:10308000883C910578F0F12C207F09F0C6C07C2D9A
:10309000D98AC88A89890E944D1786EA91E00E94E0
:1030A000F313B1C0822F807F09F046C0751314C09E
:1030B000341312C0611110C02F7020612093AB0136
:1030C0000E948D1786EA91E00E94F3138091AB0174
:1030D000D80115968C932EC0CD2819F15F3F11F4BD
:1030E0004F3FF9F0F62E61111CC0809174012091C0
:1030F000750136E0821709F45AC090E0389FF0015C
:10310000399FF00D1124EA58FE4F7181571306C004
:103110007081471303C07281711103C001968770DB
:10312000E9CFF62E662309F418C18091AB018160C6
:103130008093AB01F12C11C1751308C0341306C084
:10314000611104C08091AB01D801C3C04D875E8777
:103150008D859E856A8B0E9427176A898823E1F1F5
:103160006623D1F12091AB01822F82958F7090E080
:10317000029774F08091A6019091A70198878F83A0
:103180001986DB86CA862C87CE0107960E94F31328
:1031900086E0F801A6EAB1E001900D928A95E1F788
:1031A0000E949B170E948D17FF24F394D6C04D8771
:1031B0005E878D859E850E94181C292F22952F7071
:1031C00030E0223031050CF0BCC09F7009F0B6C071
:1031D000805E883008F4C1C0C8010E94F313E4CFB8
:1031E000C816D90608F453C0F601E81BF90BCF0145
:1031F000883C910508F450C0F12C7C2DD98AC88AEE
:1032000089890E944D17E6EAF1E086E0DF011D9210
:103210008A95E9F70E948D17A0C0751314C0341366
:1032200012C0611110C08091AB01F8018583C80103
:103230000E94F31386E0E6EAF1E0DF011D928A9531
:10324000E9F7FE2C8AC04D875E878D859E856A8B47
:103250000E9427176A89882309F4BECF662309F4E0
:10326000BBCF2091AB01822F82958F7090E00297A7
:103270000CF48ECF8091A6019091A7019A83898347
:103280001B82DD82CC822E83CE0101967FCF80957A
:1032900090958C0D9D1DACCFF62E662309F49CCF26
:1032A00075132EC034132CC02091AB0120FD1FC01C
:1032B000822F82958F70D9F0D80115962C9315978F
:1032C0008F3049F08F5F982F9295907F822F8F706B
:1032D000892B15968C93C8010E94F31386E0F801A0
:1032E000A6EAB1E001900D928A95E1F793CF86E0CE
:1032F000F801A6EAB1E001900D928A95E1F72DC0A0
:103300004D875E878D859E850E942717811140CF4E
:103310008091AB0181608093AB01C8010E94F313DF
:103320001CC0662309F458CF4D875E878D859E8526
:103330000E942717882309F44FCF2ACF811148CF45
:103340000CC0243031050CF047CF9F7009F440CFFA
:10335000F8019581907F09F03BCF8F2D62960FB6D3
:10336000F894DEBF0FBECDBFDF91CF911F910F91BB
:10337000FF90EF90DF90CF9008951F93CF93DF934E
:10338000CDB7DEB72C970FB6F894DEBF0FBECDBF1A
:103390004F83588769877A878B879C87CE010796EA
:1033A0000E94F617882369F08F8198852A853B85CE
:1033B000232BF1F19F3F09F063C08F3F09F060C0FC
:1033C00037C086E0FE013796DE01119601900D921E
:1033D0008A95E1F76F817885EA85FB85309741F121
:1033E0007F3F11F46F3F21F12091750130E0C90159
:1033F0000196877099274091740150E084179507D2
:1034000009F447C069837A83FD83EC8396E0929F39
:10341000D001939FB00D1124AA58BE4FFE013196E2
:1034200001900D929A95E1F7809375010E946C17B7
:1034300016E080917401909175018917C1F1189F70
:10344000C00111248A589E4F0E94F617882379F1F3
:10345000E09174011E9FF0011124EA58FE4F408153
:10346000518162817381848195810E945C17809172
:10347000740190E001968770992780937401D9CFE9
:103480004F81588569857A858B859C850E945C175C
:10349000CFCF0E9423171092750110927401E6EAB3
:1034A000F1E086E0DF011D928A95E9F7C1CF2C9605
:1034B0000FB6F894DEBF0FBECDBFDF91CF911F9145
:1034C0000895EF92FF920F931F93CF93DF938C0198
:1034D000009709F46CC0F12CEE24E394E8012196E6
:1034E000F8018491843740F4843008F051C0813071
:1034F00081F0823019F15BC0853709F444C0A8F12E
:103500009CE7980F903708F052C08F770E9496136F
:1035100041C00E5F1F4FFE01C49180E28C0F8830C6
:1035200048F4C7708E2D01C0880FCA95EAF70E9433
:10353000111D14C08C2F0E94CE122DC00E5F1F4F84
:10354000FE01C49180E28C0F883058F4C7708E2D34
:1035500001C0880FCA95EAF70E94171D0E94381D06
:103560001AC08C2F0E94961316C00E5F1F4FFE01CB
:10357000C491CC2381F08FE99FE00197F1F700C05F
:103580000000C150F6CF0E5F1F4FFE01F49003C044
:103590000E94CE128E018F2D882309F49FCFEFE970
:1035A000FFE03197F1F700C000008150F5CFDF91C7
:1035B000CF911F910F91FF90EF9008950895609320
:1035C000B0017093B1018093B2019093B3010C9458
:1035D00011170F931F930091B0011091B101209129
:1035E000B2013091B301DC01CB01802B912BA22BD6
:1035F000B32B8093B0019093B101A093B201B0932B
:10360000B3011F910F910C9411170F931F93009109
:10361000B0011091B1012091B2013091B301DC01F0
:10362000CB0180239123A223B3238093B0019093F5
:10363000B101A093B201B093B3011F910F910C940B
:1036400011170F931F930091B0011091B1012091B8
:10365000B2013091B301DC01CB0180279127A22771
:10366000B3278093B0019093B101A093B201B093BE
:10367000B3011F910F910C9411171092AC0110928D
:10368000AD011092AE011092AF010C94111741E000
:1036900050E060E070E004C0440F551F661F771FC4
:1036A0008A95D2F74093AC015093AD016093AE017F
:1036B0007093AF010C94111741E050E060E070E0AE
:1036C00004C0440F551F661F771F8A95D2F780915B
:1036D000AC019091AD01A091AE01B091AF01482B2A
:1036E000592B6A2B7B2B4093AC015093AD01609317
:1036F000AE017093AF010C94111741E050E060E00F
:1037000070E004C0440F551F661F771F8A95D2F7DB
:1037100040955095609570958091AC019091AD0168
:10372000A091AE01B091AF01482359236A237B23B6
:103730004093AC015093AD016093AE017093AF0123
:103740000C94111741E050E060E070E004C0440FB9
:10375000551F661F771F8A95D2F78091AC01909113
:10376000AD01A091AE01B091AF01482759276A275A
:103770007B274093AC015093AD016093AE017093F1
:10378000AF010C9411170F931F930091AC0110918E
:10379000AD012091AE013091AF01DC01CB01802B56
:1037A000912BA22BB32B8093AC019093AD01A093EE
:1037B000AE01B093AF011F910F910C9411170F93AD
:1037C0001F930091AC011091AD012091AE01309199
:1037D000AF01DC01CB0180239123A223B32380938B
:1037E000AC019093AD01A093AE01B093AF011F91D6
:1037F0000F910C9411170F931F930091AC0110912E
:10380000AD012091AE013091AF01DC01CB018027E9
:103810009127A227B3278093AC019093AD01A09389
:10382000AE01B093AF011F910F910C941117089541
:10383000CF92DF92EF92FF920F931F93CF93DF937C
:103840008C01C090B001D090B101E090B201F09035
:10385000B3014091AC015091AD016091AE01709106
:10386000AF01C42AD52AE62AF72ACFE1D0E0D70152
:10387000C6010C2E04C0B695A795979587950A9416
:10388000D2F780FF07C0B8018C2F0E94251E81301F
:10389000910531F4219758F7B80180E00E94251E68
:1038A000DF91CF911F910F91FF90EF90DF90CF901C
:1038B000089590910B01992321F090910C019111A1
:1038C00009C020910D0130910E01F90132969FEF50
:1038D00040E030C0982F9695969596959F30A0F42D
:1038E000E0910D01F0910E01E90FF11D877021E0CB
:1038F00030E0A90102C0440F551F8A95E2F7CA01C2
:103900009181892B818308959091C70190FF23C0F5
:103910001F928F9384EC95E09F938F930E94AC0746
:103920000F900F900F900F9008959F3F39F04F5FC9
:103930004E3041F051915813F8CF0DC05111F7CFCF
:10394000942FF5CF9F3F39F0F901E90FF11D97FD55
:10395000FA9582830895089590910B01992321F09F
:1039600090910C01911109C020910D0130910E012F
:10397000F9013296205F3F4F30C0982F969596956B
:1039800096959F30A8F4E0910D01F0910E01E90F9A
:10399000F11D877021E030E0A90102C0440F551FDE
:1039A0008A95E2F7CA0180959181892381830895E0
:1039B0009091C70190FF16C01F928F9386EA95E001
:1039C0009F938F930E94AC070F900F900F900F90D2
:1039D00008953196E217F30729F090819813F9CFF3
:1039E0001082F7CF089581E090E0E0910D01F09111
:1039F0000E01E80FF91F1082019680319105A9F799
:103A000008959091C601892B8093C60108958095F1
:103A10009091C60189238093C60108951092C60132
:103A200008959091C501892B8093C50108958095D3
:103A30009091C50189238093C50108951092C50115
:103A400008958093B40108951092B401089580916F
:103A50000D0190910E01FC0131969C01205F3F4FBA
:103A600080E0919191118F5FE217F307D1F70895EC
:103A7000E0910D01F0910E018091C6018083E091EB
:103A80000D01F0910E0190818091C501892B8083F9
:103A90008091B401882361F0E0910D01F0910E0155
:103AA0009081892B80830E94271D81111092B4017F
:103AB00080910D0190910E010C943611CF93DF93FC
:103AC0008D3B50F4883A10F5853AB8F4843090F480
:103AD000813009F46FC00BC0883E30F4803E50F452
:103AE0008F3B09F459C003C0803F08F051C0C0E0CB
:103AF000D0E0A7C0C82FD0E0A4C0853A09F45DC0CB
:103B0000863A09F45DC0C3E8D0E49BC0883A09F462
:103B10005AC0893A09F45AC08A3A09F45AC08B3A11
:103B200009F45AC08C3A09F45AC08B3B09F45AC0C4
:103B30008C3B09F45AC08D3A09F45AC0803B09F411
:103B40005AC08E3A09F45AC08F3A09F45AC0813BE0
:103B500009F45AC0823B09F45AC0833B09F45AC0A5
:103B6000843B09F45AC0853B09F45AC0863B09F4EA
:103B70005AC0873B09F45AC0883B09F45AC0893BB4
:103B800009F45AC08A3B09F45AC0C0E0D4E459C0D1
:103B9000C82FD0E0D06555C00E9423172FEF80E7D3
:103BA00092E0215080409040E1F700C000000E9468
:103BB0009D1F47C0C1E0D0E044C0C1E8D0E441C08F
:103BC000C2E8D0E43EC0C2EED4E43BC0C9EED4E4C7
:103BD00038C0CAEED4E435C0C5EBD4E432C0C6EB7D
:103BE000D4E42FC0C3EBD4E42CC0C4EBD4E429C08C
:103BF000C7EBD4E426C0CCECD4E423C0CDECD4E4B1
:103C000020C0C3E8D5E41DC0CAE8D5E41AC0C2E9A3
:103C1000D5E417C0C4E9D5E414C0C1E2D6E411C0AC
:103C2000C3E2D6E40EC0C4E2D6E40BC0C5E2D6E4DB
:103C300008C0C6E2D6E405C0C7E2D6E402C0CAE2C4
:103C4000D6E4CE01DF91CF9108950E94B507803E62
:103C5000A8F4803C00F5813309F45CC038F4893263
:103C600009F452C08A3209F45BC05FC08933B1F0F5
:103C70008238A1F0853309F441C057C0833E41F139
:103C800028F4803E99F0823EB9F04FC0863E31F173
:103C9000873E71F14AC00E94C40708959091D801EF
:103CA00090FD02C091FF41C080EE3FC08091D801DD
:103CB00080FFFACF89E339C08091D80182FF0CC020
:103CC0008091D80184FF02C080E02FC083EE2DC018
:103CD0008091D80182FFF4CF82EE27C08091D80175
:103CE00083FF0AC08091D80184FDEECF87EE1DC00E
:103CF0008091D80183FFF6CF86EE17C08091D8015E
:103D000085FF06C089E211C08091D80185FFFACFF6
:103D100085E30BC08091D80186FF06C08AE205C00A
:103D20008091D80186FFFACF81E30E945E1D08953D
:103D300080E090E0089508959093390180933801D0
:103D400008958295982F9C7C392F36953695282F8B
:103D5000237344E0249FC0011124932F982B292F13
:103D60002A7A2695892F8575880F822B08951F93AF
:103D7000CF93DF931F92CDB7DEB799830E94A11E28
:103D8000182F9981892F0E94A11E212F30E0322FF8
:103D90002227A901482BCA010F90DF91CF911F91D3
:103DA00008958091DD01843009F11092C80120E46A
:103DB00088E190E00FB6F894A895809360000FBE5C
:103DC0002093600083B7817F846083BF83B7816065
:103DD00083BF7894889583B78E7F83BF88E10FB6C1
:103DE000F89480936000109260000FBE08950895CB
:103DF0000895CF930E94F71E0E94FD070E94F81EAF
:103E0000C0E08C2F0E942509892B29F4CF5FC53093
:103E1000C1F780E001C081E0CF9108950C94231791
:103E20001F920F920FB60F9211248F939F93AF930F
:103E3000BF938091C801811113C08091C9019091F5
:103E4000CA01A091CB01B091CC014196A11DB11D39
:103E50008093C9019093CA01A093CB01B093CC0188
:103E6000BF91AF919F918F910F900FBE0F901F90B8
:103E7000189582E084BD93E095BD9AEF97BD80933D
:103E80006E0008952FB7F8948091C9019091CA01EE
:103E9000A091CB01B091CC012FBF0895CF92DF92BA
:103EA000EF92FF920F931F932FB7F8944091C9019F
:103EB0005091CA016091CB017091CC012FBF6A0172
:103EC0007B01EE24FF248C0120E030E0C016D106F7
:103ED000E206F30610F4415051099A01281B390BF0
:103EE000C9011F910F91FF90EF90DF90CF9008953F
:103EF0001F920F920FB60F9211248F939F93AF933F
:103F0000BF938091C9019091CA01A091CB01B0915A
:103F1000CC010196A11DB11D8093C9019093CA01E6
:103F2000A093CB01B093CC01BF91AF919F918F91A2
:103F30000F900FBE0F901F9018950E94430EF8949B
:103F40002FEF87EA91E6215080409040E1F700C0D2
:103F5000000087E090EBDC018093E6019093E7019D
:103F6000A093E801B093E9012CE088E190E00FB65E
:103F7000F894A895809360000FBE20936000FFCF57
:103F8000CF92DF92EF92FF920F931F93CF93DF9325
:103F9000D82FC0E0EE24E394F12C8C2F0E94250949
:103FA0006C0100E010E09701002E02C0220F331FC9
:103FB0000A94E2F72C213D21232B31F40F5F1F4F90
:103FC0000E30110581F709C0602F7C2F80E00E9420
:103FD000B507D813F3CF81E004C0CF5FC530E9F651
:103FE00080E0DF91CF911F910F91FF90EF90DF90D4
:103FF000CF900895CF93C82F8CE20E94C01F8823D2
:1040000021F08C2FCF910C94C01F80E0CF910895A8
:10401000CF930E945721811102C00E943D2189EE59
:1040200095E00E941307C5E6C15049F00E94FD07C4
:104030008FE39CE90197F1F700C00000F5CF82EE15
:1040400095E00E94130789E20E94FA1F811113C1B3
:104050008AE20E94FA1F81110E943D2185E00E94A0
:10406000FA1F81110E949D1F0E9462218093C70147
:1040700087E00E94FA1F8823A9F18BE10E94FA1FB2
:10408000882351F08091C70181FB222720F991E01C
:10409000922790FB81F90EC08EE00E94FA1F8823C0
:1040A00061F08091C70182FB222720F991E09227DD
:1040B00090FB82F98093C70115C080E10E94FA1F2E
:1040C0009091C701882341F093FB222720F981E0DA
:1040D000822780FB93F904C0892F809580FB90F99B
:1040E0009093C7018091C7010E9466210E947421AC
:1040F0008093D80180EE0E94FA1F882341F08091BE
:10410000D801982F909590FB80F98093D80189E38E
:104110000E94FA1F882359F08091D80181FB222741
:1041200020F991E0922790FB81F98093D80182EEEB
:104130000E94FA1F882359F08091D80182FB222720
:1041400020F991E0922790FB82F98093D80186EEC6
:104150000E94FA1F882359F08091D80183FB2227FF
:1041600020F991E0922790FB83F98093D80183EEA8
:104170000E94FA1F882359F08091D80184FB2227DE
:1041800020F991E0922790FB84F98093D80185E390
:104190000E94FA1F882359F08091D80185FB2227BD
:1041A00020F991E0922790FB85F98093D80181E373
:1041B0000E94FA1F882359F08091D80186FB22279C
:1041C00020F991E0922790FB86F98093D80181E154
:1041D0000E94FA1F882359F08091D80187FB22277B
:1041E00020F991E0922790FB87F98093D801809184
:1041F000D8010E9478218091D80187FB882780F917
:1042000080930C0187E20E94FA1FC82F8EE10E9462
:10421000FA1F8111C2608FE10E94FA1F8111C460F0
:1042200080E20E94FA1F8111C86081E20E94FA1F99
:104230008111C06182E20E94FA1F8111C06283E293
:104240000E94FA1F8111C06484E20E94FA1F882331
:1042500011F0C06802C0CC2329F08C2F0E946F217E
:104260006C2F03C00E946B21682F70E080E090E00B
:10427000CF910C94DF1ACF9108956DEE7EEF80E020
:1042800090E00E94CD2A60E082E090E00E94BF2A88
:1042900060E083E090E00E94BF2A60E084E090E06C
:1042A0000E94BF2A60E085E090E00C94BF2A80E085
:1042B00090E00E94B92A21E08D3E9E4F09F020E057
:1042C000822F089582E090E00C94B12A682F82E05A
:1042D00090E00C94BF2A83E090E00C94B12A682F00
:1042E00083E090E00C94BF2A84E090E00C94B12A23
:1042F000682F84E090E00C94BF2A8091CF0180FF6A
:104300000BC06091120185E0689FB0011124759582
:104310006795759567952BC081FF09C06091120163
:1043200085E0689FB00111247595679520C082FFD4
:1043300007C06091120185E0689FB001112417C089
:104340009091D0019923D1F060911101961788F7CF
:104350002091120185E0289F90011124929FA001D5
:10436000939F500D112470E0CA010E94832A603887
:10437000710540F46115710539F002C065E070E027
:10438000862F08958FE7089581E008958091CF01E9
:1043900080FF08C06091100170E075956795759574
:1043A000679521C081FF06C06091100170E075958E
:1043B000679519C082FF04C06091100170E010C0C1
:1043C0009091D0019923C1F060910F019617A0F749
:1043D00080911001899FC001112470E00E94832AFE
:1043E0006038710528F46115710521F0862F089554
:1043F0008FE7089581E0089561E070E0F4CF803F99
:1044000021F40E947D21819504C0813F29F40E94FE
:104410007D218093D3010895823F21F40E947D2164
:10442000819504C0833F29F40E947D218093D201AD
:104430000895893F19F40E94C62105C08A3F31F4CE
:104440000E94C62181958093D40108958B3F21F469
:104450000E94C621819504C08C3F29F40E94C62188
:104460008093D5010895843F21F48091D10181602A
:1044700017C0853F21F48091D101826011C0863F31
:1044800021F48091D10184600BC0873F21F4809199
:10449000D101886005C0883F31F48091D1018061ED
:1044A0008093D10108958D3F21F48091CF018160E7
:1044B0000BC08E3F21F48091CF01826005C08F3FF9
:1044C00029F48091CF0184608093CF010895803FCB
:1044D00039F48091D30187FF6CC01092D30169C079
:1044E000813F29F48091D3011816BCF362C09091EA
:1044F000D201823F29F497FF5CC01092D20159C0CB
:10450000833F19F41916CCF354C0893F41F48091CC
:10451000D40118160CF04DC01092D4014AC08A3F45
:1045200029F48091D40187FF44C0F6CF8B3F39F442
:104530008091D50187FF3DC01092D5013AC08C3FD4
:1045400029F48091D5011816BCF333C0843F21F4BF
:104550008091D1018E7F17C0853F21F48091D101D8
:104560008D7F11C0863F21F48091D1018B7F0BC0DC
:10457000873F21F48091D101877F05C0883F31F4C6
:104580008091D1018F7E8093D10113C08D3F21F4A2
:104590008091CF018E7F0BC08E3F21F48091CF019F
:1045A0008D7F05C08F3F29F48091CF018B7F809351
:1045B000CF018091D20181110EC08091D301811170
:1045C0000AC08091D401811106C08091D50181116A
:1045D00002C01092D00108958091C70183FF7EC070
:1045E00085E296E00E9413078091D1011F928F937C
:1045F00080E296E09F938F930E94AC078EE196E055
:104600000E9413078091D201282F332727FD309570
:104610003F938F938BE196E09F938F930E94AC071B
:1046200089E196E00E9413078091D301282F332758
:1046300027FD30953F938F9386E196E09F938F936C
:104640000E94AC0784E196E00E9413078091D40198
:10465000282F332727FD30953F938F9381E196E0F4
:104660009F938F930E94AC078FE096E00E94130700
:104670008091D501282F332727FD30953F938F93C5
:104680008CE096E09F938F930E94AC0789E096E0C0
:104690000E9413078091D0011F928F9386E096E0CD
:1046A0009F938F930E94AC0784E096E00E941307CB
:1046B0008091CF011F928F9381E096E09F938F931B
:1046C0000E94AC078EEF95E00E9413078DB79EB74E
:1046D0004C960FB6F8949EBF0FBE8DBF81ED91E052
:1046E0000E947F110E94421F9093CE018093CD01C2
:1046F00008951F93CF93DF938091CD019091CE01C8
:104700000E944E1FAC019091D001992321F020917D
:10471000130130E006C0209114018AE0289F900127
:1047200011244217530708F486C08091D201C0912A
:10473000D301D091D4011091D501811107C0C111CD
:1047400076C0D11174C0111172C075C09F3F19F0AD
:104750009F5F9093D001181624F40E947D218093CE
:10476000D2018091D20187FF05C00E947D218195F1
:104770008093D2011C1624F40E947D218093D301E2
:104780008091D30187FF05C00E947D218195809390
:10479000D3016091D201662339F1C091D301CC23BA
:1047A00019F1772767FD7095872F972F0E94882929
:1047B00023E333E343E35FE30E94EC290E9455299E
:1047C0006093D2016C2F772767FD7095872F972F05
:1047D0000E94882923E333E343E35FE30E94EC294B
:1047E0000E9455296093D3011D1624F40E94C6210E
:1047F0008093D4018091D40187FF05C00E94C62117
:1048000081958093D401111624F40E94C6218093CF
:10481000D5018091D50187FF05C00E94C6218195F1
:104820008093D501DF91CF911F910C94EC229F3F93
:1048300009F08ECF96CFDF91CF911F910895E1EDD2
:10484000F1E085E0DF011D928A95E9F71092D00131
:104850001092CF01089588E498E00E9413071F92F8
:1048600081E08F931F9285E08F938AEF97E09F936B
:104870008F930E94AC070F900F900F900F900F90A6
:104880000F9008958330E9F128F4813061F082308F
:1048900009F10895853009F462C008F449C08630F2
:1048A00009F474C0089580911401262F30E0280F78
:1048B000311D2F3F310524F4680F6093140103C0AC
:1048C0008FEF80931401809114011F928F9383E3E3
:1048D00097E072C080911301262F30E0280F311D20
:1048E0002F3F310524F4680F6093130103C08FEF4D
:1048F00080931301809113011F928F9381E297E0BF
:104900005BC080911201262F30E0280F311D2F3F10
:10491000310524F4680F6093120103C08FEF809378
:104920001201809112011F928F938EE097E044C094
:1049300080911101262F30E0280F311D2F3F3105C6
:1049400024F4680F6093110103C08FEF809311016D
:10495000809111011F928F9389EF96E02DC0809175
:104960001001262F30E0280F311D2F3F310524F490
:10497000680F6093100103C08FEF80931001809146
:1049800010011F928F9380EE96E016C080910F0168
:10499000262F30E0280F311D2F3F310524F4680FFA
:1049A00060930F0103C08FEF80930F0180910F017F
:1049B0001F928F9385EC96E09F938F930E94AC0794
:1049C0000F900F900F900F900895833081F128F48D
:1049D000813059F08230D1F00895853009F449C012
:1049E000B8F1863009F456C0089580911401681713
:1049F00020F4861B8093140102C010921401809150
:104A000014011F928F9386EB96E054C0809113019E
:104A1000681720F4861B8093130102C010921301C3
:104A2000809113011F928F9384EA96E043C0809196
:104A30001201681720F4861B8093120102C01092A5
:104A40001201809112011F928F9381E996E032C08A
:104A500080911101681720F4861B8093110102C018
:104A600010921101809111011F928F938CE796E0B3
:104A700021C080911001681720F4861B80931001DB
:104A800002C010921001809110011F928F9383E653
:104A900096E010C080910F01681720F4861B809368
:104AA0000F0102C010920F0180910F011F928F938E
:104AB00088E496E09F938F930E94AC070F900F902D
:104AC0000F900F900895CF93C82F1F928F938DE46E
:104AD00099E09F938F930E94AC0781E090E0A0E063
:104AE000B0E0BC01CD0104C0660F771F881F991F7D
:104AF000CA95D2F70E94DF1A0F900F900F900F9077
:104B0000CF910C942317CF938B3109F4CBC108F0CC
:104B100049C08E3009F4DAC100F5873009F4A9C123
:104B2000A8F4863009F060C28091C701817F8E7F32
:104B30008093C70182E599E00E94130782E79DE018
:104B40000E94130781E08093D70191C1883009F456
:104B50005BC08B3009F487C147C2813109F42CC294
:104B600020F4803109F4C6C13FC2863109F4DDC1A9
:104B7000893109F039C286EE9CE00E9413078DEB63
:104B80009CE00E94130788E89CE00E94130781E6DE
:104B90009CE00E9413078CE19CE00E94130781EFC8
:104BA0009BE063C1853309F419C268F4873209F4C4
:104BB00015C228F48E3108F417C28D5112C2893201
:104BC00009F40CC211C2833438F48A3308F008C2E5
:104BD000883309F448C108C2833409F4FFC188341A
:104BE00009F002C20E94231781E69DE00E9413078C
:104BF0009FEF23ED80E3915020408040E1F700C01B
:104C000000000E949D1F33C186E79DE00E941307AC
:104C100081E59BE00E9413070E946B211F928F93F6
:104C20008EE49BE09F938F930E94AC078CE49BE003
:104C30000E9413070E946221C82F89E39BE00E9413
:104C400013071F92CF9384E39BE09F938F930E945F
:104C5000AC0782E39BE00E94130788E29BE00E947E
:104C600013078C2F81701F928F9385E29BE09F9397
:104C70008F930E94AC0783E29BE00E94130789E1B7
:104C80009BE00E941307C1FB882780F91F928F9336
:104C900086E19BE09F938F930E94AC0784E19BE0A9
:104CA0000E94130788E09BE00E941307C2FB88273D
:104CB00080F91F928F9385E09BE09F938F930E94D2
:104CC000AC0783E09BE00E9413078AEF9AE00E9402
:104CD0001307C3FBCC27C0F91F92CF9387EF9AE04D
:104CE0009F938F930E94AC0785EF9AE00E94130771
:104CF0000E947421C82F81EE9AE00E9413071F9230
:104D0000CF938CED9AE09F938F930E94AC078AED2E
:104D10009AE00E94130781EC9AE00E9413078C2FFF
:104D200081701F928F938EEB9AE09F938F930E94D6
:104D3000AC078DB79EB780960FB6F8949EBF0FBE96
:104D40008DBF8CEB9AE00E94130785EA9AE00E94DF
:104D50001307C1FB882780F91F928F9382EA9AE09C
:104D60009F938F930E94AC0780EA9AE00E941307FA
:104D70008EE89AE00E941307C2FB882780F91F92F1
:104D80008F938BE89AE09F938F930E94AC0789E8FA
:104D90009AE00E94130787E79AE00E941307C3FB7B
:104DA000882780F91F928F9384E79AE09F938F93CF
:104DB0000E94AC0782E79AE00E94130788E69AE017
:104DC0000E941307C4FB882780F91F928F9385E602
:104DD0009AE09F938F930E94AC0783E69AE00E942B
:104DE000130781E59AE00E941307C5FB882780F925
:104DF0001F928F938EE49AE09F938F930E94AC074B
:104E00008CE49AE00E94130780E39AE00E94130763
:104E1000C6FB882780F91F928F938DE29AE09F93BB
:104E20008F930E94AC078BE29AE00E94130783E203
:104E30009AE00E941307C7FBCC27C0F91F92CF93BB
:104E400080E29AE09F938F930E94AC078EE19AE0F4
:104E50000E9413078DB79EB74C960FB6F8949EBF6D
:104E60000FBE8DBF04C089E799E00E941307C1E01F
:104E7000C0C08091C701C82FC17080FF09C084E500
:104E80009DE00E9413078091C701817F8E7F47C0FC
:104E900088E49DE00E9413078091C70181608093A0
:104EA000C701E5CF9091C70191FBCC27C0F981E004
:104EB000C827892FC0FB81F98093C701CC2319F043
:104EC0008BE39DE027C08DE29DE0CFCF9091C7019D
:104ED00092FBCC27C0F981E0C827892FC0FB82F95B
:104EE0008093C701CC2319F08EE19DE013C08EE0C2
:104EF0009DE0BBCF9091C70193FBCC27C0F981E027
:104F0000C827892FC0FB83F98093C701CC2351F0B8
:104F100082E09DE00E9413078091C7018160809329
:104F2000C70167C085EF9CE0A0CF83EE9BE00E94A5
:104F300013070E942A111F928F9389EC9BE09F9385
:104F40008F930E94AC0780910B011F928F9382EB8D
:104F50009BE09F938F930E94AC07809162011F9208
:104F60008F938FE99BE09F938F930E94AC07809172
:104F70000C011F928F938CE89BE09F938F930E946C
:104F8000AC078091C9019091CA01A091CB01B09169
:104F9000CC01BF93AF939F938F9388E79BE09F9340
:104FA0008F930E94AC078DB79EB746960FB6F894C4
:104FB0009EBF0FBE8DBF5BCF0E942317C0910C0117
:104FC00081E0C827C0930C01CC2329F08EE69BE03A
:104FD0000E9413070EC083E69BE047CF80E001C02C
:104FE00089530E94632543CF81E69BE00E9413070B
:104FF000C0E08C2FCF91089580E0089580E008955F
:10500000CF93C82F8091D701813071F020F082308A
:1050100009F44BC042C1E0910D01F0910E01808175
:10502000823209F03CC107C0E0910D01F0910E0100
:105030008081823261F48C2F0E94FC27811104C090
:105040008C2F0E9483252FC081E090E02CC08C2FF4
:105050000E94FE27811126C0C431E1F070F4CB30EC
:1050600081F0C031D1F40E942B2485E499E00E94A4
:10507000130782E08093D70115C0C93259F0C833B5
:1050800061F482E599E00E94130789E499E00E94A7
:10509000130708C01092D70104C183E499E00E946D
:1050A0001307FFC081E08170FEC0C43228F5CE3105
:1050B00008F0C1C0CB30A1F1D0F4C73009F0D3C0A3
:1050C0008EE18093140182E3809313018AE0809340
:1050D000120184E18093110188E08093100188E23D
:1050E00080930F0189EE97E00E941307BFC0C33180
:1050F00049F1C431C1F0B7C0CB3409F4A9C028F4D8
:10510000C93289F0C83361F0AEC0C13509F49EC020
:10511000C23509F499C0CE3409F0A5C06AE09EC03A
:105120000E942B24A3C08091D601882319F01092ED
:10513000D6019CC086EF97E00E94130781E0809320
:10514000D701B1C080ED97E00E9413078EEB97E086
:105150000E941307809114011F928F938BEB97E0AD
:105160009F938F930E94AC0789EB97E00E941307EF
:1051700087EA97E00E941307809113011F928F9393
:1051800084EA97E09F938F930E94AC0782EA97E0AE
:105190000E94130783E997E00E9413078091120190
:1051A0001F928F9380E997E09F938F930E94AC07A3
:1051B0008EE897E00E9413078DE797E00E9413079F
:1051C000809111011F928F938AE797E09F938F93AD
:1051D0000E94AC0788E797E00E94130783E697E0F8
:1051E0000E941307809110011F928F9380E697E031
:1051F0009F938F930E94AC078EE597E00E94130760
:1052000087E497E00E94130780910F011F928F930C
:1052100084E497E09F938F930E94AC0782E497E029
:105220000E9413078DB79EB748960FB6F8949EBF9D
:105230000FBE8DBF1BC0CE51EC2FF0E0E25DFE4FE4
:1052400080818093D60112C061E003C061E006C096
:105250006AE08091D6010E94422408C08091D60164
:105260000E94E52403C087EE97E013C08091D60129
:10527000882369F01F928F9381EE97E09F938F931D
:105280000E94AC070F900F900F900F9004C08EED0E
:1052900097E00E94130781E006C01092D70180E0DA
:1052A00002C080E000CFCF91089504D06894B1117E
:1052B0008DC0089570D088F09F5790F0B92F99272E
:1052C000B751A0F0D1F0660F771F881F991F1AF011
:1052D000BA95C9F712C0B13081F077D0B1E0089526
:1052E00074C0672F782F8827B85F39F0B93FCCF3A7
:1052F000869577956795B395D9F73EF49095809507
:10530000709561957F4F8F4F9F4F0895E89409C026
:1053100097FB3EF490958095709561957F4F8F4FE8
:105320009F4F9923A9F0F92F96E9BB279395F695FE
:10533000879577956795B795F111F8CFFAF4BB0F7C
:1053400011F460FF1BC06F5F7F4F8F4F9F4F16C0E0
:10535000882311F096E911C0772321F09EE8872F6A
:10536000762F05C0662371F096E8862F70E060E026
:105370002AF09A95660F771F881FDAF7880F96959F
:10538000879597F9089557FD9058440F551F59F088
:105390005F3F71F04795880F97FB991F61F09F3F22
:1053A00079F087950895121613061406551FF2CF4B
:1053B0004695F1DF08C0161617061806991FF1CF9B
:1053C00086957105610508940895E894BB276627C2
:1053D0007727CB0197F908950BD078C069D028F0D2
:1053E0006ED018F0952309F05AC05FC01124EECF9B
:1053F000CADFA0F3959FD1F3950F50E0551F629F30
:10540000F001729FBB27F00DB11D639FAA27F00D1D
:10541000B11DAA1F649F6627B00DA11D661F829F44
:105420002227B00DA11D621F739FB00DA11D621F29
:10543000839FA00D611D221F749F3327A00D611D46
:10544000231F849F600D211D822F762F6A2F112428
:105450009F5750408AF0E1F088234AF0EE0FFF1F7B
:10546000BB1F661F771F881F91505040A9F79E3FB2
:10547000510570F014C0AACF5F3FECF3983EDCF307
:10548000869577956795B795F795E7959F5FC1F7EF
:10549000FE2B880F911D9695879597F9089597F99A
:1054A0009F6780E870E060E008959FEF80EC0895CA
:1054B00000240A94161617061806090608950024F3
:1054C0000A9412161306140605060895092E03946D
:1054D000000C11F4882352F0BB0F40F4BF2B11F4E1
:1054E00060FF04C06F5F7F4F8F4F9F4F0895991BE0
:1054F00079E004C0991F961708F0961B881F7A95CB
:10550000C9F78095089597FB072E16F4009407D0ED
:1055100077FD09D00E949D2A07FC05D03EF49095A6
:1055200081959F4F0895709561957F4F0895EE0F77
:10553000FF1F0590F491E02D0994AA1BBB1B51E1BC
:1055400007C0AA1FBB1FA617B70710F0A61BB70BF3
:10555000881F991F5A95A9F780959095BC01CD0198
:105560000895F999FECF92BD81BDF89A992780B52B
:105570000895A8E1B0E042E050E00C94D42A262F30
:10558000F999FECF1FBA92BD81BD20BD0FB6F89428
:10559000FA9AF99A0FBE019608950E94BF2A272F02
:1055A0000C94C02ADC01CB01FC01F999FECF06C0A6
:1055B000F2BDE1BDF89A319600B40D9241505040D1
:0855C000B8F70895F894FFCF3D
:1055C800057C096D0A4A0A160AE2090101B5012893
:1055D80008140A321E3F4D3620393305E604B0045C
:1055E80090045704CA03E303FC03150435040102BD
:0855F800030405060708090081
:00000001FF
